:0400000023EF00F0FA
:06000800698209ED03F01E
:100018006980E0CF80F0F0A614EF00F016EF00F052
:100028001FEF00F0F0A21BEF00F01DEF00F01FEF34
:1000380000F03EEC0AF080C0E0FF699010009FEFEE
:0200480009F0BD
:10060000003738392F3435362A3132332D63303DB7
:100610002B000600FACF63F0FBCF64F0D9CF65F072
:10062000DACF66F0F3CF67F0F4CF68F0F2A81BEFF3
:1006300003F01DEF03F026EF03F0F2A222EF03F028
:1006400024EF03F026EF03F040EC0AF0F0A62BEFC6
:1006500003F02DEF03F036EF03F0F0A032EF03F0DC
:1006600034EF03F036EF03F044EC0AF0F0A83BEF70
:1006700003F03DEF03F046EF03F0F0A242EF03F08A
:1006800044EF03F046EF03F042EC0AF0F2A64BEF22
:1006900003F04DEF03F068EF03F0F2A052EF03F028
:1006A00054EF03F068EF03F081A859EF03F05BEF1C
:1006B00003F068EF03F01804D8A461EF03F063EFD0
:1006C00003F068EF03F0000EEBEC08F0000E186E7C
:1006D000F2A66DEF03F06FEF03F08AEF03F0F2A0E4
:1006E00074EF03F076EF03F08AEF03F081B87BEF4D
:1006F00003F07DEF03F08AEF03F01850D8A483EFE6
:1007000003F085EF03F08AEF03F0010EEBEC08F045
:10071000010E186EF2A68FEF03F091EF03F0ACEF2D
:1007200003F0F2A096EF03F098EF03F0ACEF03F0C4
:1007300081AA9DEF03F09FEF03F0ACEF03F01704E5
:10074000D8A4A5EF03F0A7EF03F0ACEF03F0000E81
:10075000AAEC08F0000E176EF2A6B1EF03F0B3EFAB
:1007600003F0CEEF03F0F2A0B8EF03F0BAEF03F01E
:10077000CEEF03F081BABFEF03F0C1EF03F0CEEF8D
:1007800003F01750D8A4C7EF03F0C9EF03F0CEEF82
:1007900003F0010EAAEC08F0010E176EF2A6D3EFDB
:1007A00003F0D5EF03F0F0EF03F0F2A0DAEF03F07F
:1007B000DCEF03F0F0EF03F081ACE1EF03F0E3EFE7
:1007C00003F0F0EF03F01604D8A4E9EF03F0EBEF29
:1007D00003F0F0EF03F0000E69EC08F0000E166E67
:1007E000F2A6F5EF03F0F7EF03F012EF04F0F2A03A
:1007F000FCEF03F0FEEF03F012EF04F081BC03EF17
:1008000004F005EF04F012EF04F01650D8A40BEF3B
:1008100004F00DEF04F012EF04F0010E69EC08F0A3
:10082000010E166EF2A617EF04F019EF04F034EF84
:1008300004F0F2A01EEF04F020EF04F034EF04F017
:1008400081AE25EF04F027EF04F034EF04F0150437
:10085000D8A42DEF04F02FEF04F034EF04F0000ED5
:1008600028EC08F0000E156EF2A639EF04F03BEF0D
:1008700004F056EF04F0F2A040EF04F042EF04F071
:1008800056EF04F081BE47EF04F049EF04F056EF55
:1008900004F01550D8A44FEF04F051EF04F056EFD8
:1008A00004F0010E28EC08F0010E156E68C0F4FF8C
:1008B00067C0F3FF66C0DAFF65C0D9FF64C0FBFF05
:1008C00063C0FAFF6992110000018F519011D8A402
:1008D0006CEF04F06EEF04F072EF04F0000E936F13
:1008E0001EEF05F0F296F290D08E20EE05F08F51BB
:1008F000D9269051DA22DF50D8A481EF04F083EF9B
:1009000004F087EF04F0F28CF19097EF04F020EE02
:1009100005F08F51D9269051DA22DE04D8A493EF46
:1009200004F095EF04F097EF04F0F28EF180040EDE
:100930008F258B6F000E90218C6F66EC09F0000103
:10094000936FF7EF04F08FC0D9FF90C0DAFFDECFCE
:1009500047F0DDCF48F020EE02F08F51D9269051BC
:10096000DA22DECF45F0DDCF46F01DEF05F08FC077
:10097000D9FF90C0DAFFDECF43F0DDCF44F020EEA8
:1009800002F08F51D9269051DA22DECF41F0DDCF2F
:1009900042F01DEF05F08FC0D9FF90C0DAFFDECF27
:1009A0003FF0DDCF40F020EE02F08F51D92690517C
:1009B000DA22DECF3DF0DDCF3EF01DEF05F08FC037
:1009C000D9FF90C0DAFFDECF3BF0DDCF3CF020EE68
:1009D00002F08F51D9269051DA22DECF39F0DDCFE7
:1009E0003AF01DEF05F0000E936F1DEF05F020EEBD
:1009F00004F08F51D9269051DA22DF30E832E83204
:100A0000070B916F926B9251000AD8B40AEF05F070
:100A1000F3EF04F09151040AD8B4A3EF04F0010AF3
:100A2000D8B4B7EF04F0030AD8B4CBEF04F0010A4E
:100A3000D8B4DFEF04F0F3EF04F0F2869351120024
:100A4000010E0001896F81518211D8A42AEF05F0AF
:100A50002CEF05F091EF05F0000E896FB2EF05F075
:100A600081C0D9FF82C0DAFFDF30E832E832070BFD
:100A7000836F010E846F832B40EF05F0D89084378D
:100A8000832F3EEF05F000018451FF0A856F81C07E
:100A9000D9FF82C0DAFFDF50070B866F8651020D47
:100AA0000B0EF324D96E000EF420DA6EDECF87F041
:100AB000DDCF88F087C0D9FF88C0DAFF8551DF1607
:100AC000B2EF05F081C0D9FF82C0DAFFDF30E83233
:100AD000E832070B836F010E846F832B72EF05F0F2
:100AE000D8908437832F70EF05F081C0D9FF82C082
:100AF000DAFFDF50070B0001856F8551020D0B0EE9
:100B0000F324D96E000EF420DA6EDECF86F0DDCF4E
:100B100087F086C0D9FF87C0DAFF8451DF12B2EFB9
:100B200005F081C0D9FF82C0DAFFDFBC9AEF05F083
:100B30009DEF05F0010E9EEF05F0000E836F846BB4
:100B40008451000AD8B4A7EF05F02CEF05F08351CB
:100B5000000AD8B430EF05F0010AD8B462EF05F00E
:100B60002CEF05F089511200010E00018A6F8151AE
:100B70008211D8A4BEEF05F0C0EF05F025EF06F016
:100B8000000E8A6F3AEF06F081C0D9FF82C0DAFF0B
:100B9000DF30E832E832070B846F010E856F842B5B
:100BA000D4EF05F0D8908537842FD2EF05F00001FF
:100BB0008551FF0A866F81C0D9FF82C0DAFFDF50FE
:100BC000070B876F8751020D010EF324D96E000EBB
:100BD000F420DA6EDECF88F0DDCF89F088C0D9FF4F
:100BE00089C0DAFF8651DF163AEF06F081C0D9FFDF
:100BF00082C0DAFFDF30E832E832070B846F010E83
:100C0000856F842B06EF06F0D8908537842F04EF8C
:100C100006F081C0D9FF82C0DAFFDF50070B000168
:100C2000866F8651020D010EF324D96E000EF4205A
:100C3000DA6EDECF87F0DDCF88F087C0D9FF88C0BD
:100C4000DAFF8551DF123AEF06F08351846F856B2E
:100C50008551000AD8B42FEF06F0C0EF05F084519B
:100C6000000AD8B4C4EF05F0010AD8B4F6EF05F0D5
:100C7000C0EF05F08A51120053505410D8A443EF2E
:100C800006F045EF06F0A6EF06F0BBEF06F053C006
:100C9000D9FF54C0DAFFDF30E832E832070B566E76
:100CA000010E576E562A57EF06F0D8905736562E3B
:100CB00055EF06F05750FF0A586E53C0D9FF54C085
:100CC000DAFFDF50070B596E5950020D010EF32465
:100CD000D96E000EF420DA6EDECF5AF0DDCF5BF075
:100CE0005AC0D9FF5BC0DAFF5850DF16BBEF06F0E1
:100CF00053C0D9FF54C0DAFFDF30E832E832070BC7
:100D0000566E010E576E562A88EF06F0D890573669
:100D1000562E86EF06F053C0D9FF54C0DAFFDF50DD
:100D2000070B586E5850020D010EF324D96E000EB9
:100D3000F420DA6EDECF59F0DDCF5AF059C0D9FF7A
:100D40005AC0DAFF5750DF12BBEF06F05550566E0F
:100D5000576A5750000AD8B4B0EF06F045EF06F0D6
:100D60005650000AD8B447EF06F0010AD8B478EF1D
:100D700006F045EF06F01200370E00018A6F000EF4
:100D80008B6F0CEC07F0350E00018A6F000E8B6F35
:100D90000CEC07F0330E00018A6F000E8B6F0CEC29
:100DA00007F0310E00018A6F000E8B6F0CEC07F01C
:100DB0002B0E00018F6F000E906F64EC04F0250E77
:100DC00000018F6F000E906F64EC04F01F0E0001A5
:100DD0008F6F000E906F64EC04F0190E00018F6F9E
:100DE000000E906F64EC04F0310E0001886F000E6D
:100DF000896F58EC07F0030E0001956F8A0E946F0F
:100E0000550EE82EFED7942FFCD7952FFAD700D099
:100E1000F4EF06F023EF00F0010E00018D6F8A5110
:100E20008B11D8A416EF07F018EF07F01CEF07F0AE
:100E3000000E8D6F55EF07F052C08EF08AC0D9FFBB
:100E40008BC0DAFFDF500F0B8C6F8E518C19F80BB3
:100E50008C198E6F8AC0D9FF8BC0DAFFDF38070B81
:100E60008C6F8C478C478C478E518C19C70B8C1913
:100E70008E6F8AC0D9FF8BC0DAFFDFAE02D08E8DB5
:100E800002D000018E9D20EE01F08A51D9268B51AF
:100E9000DA22DFA002D08E8F02D000018E9F8E0E4C
:100EA000816F000E826F20EC05F000018D51120061
:100EB000000188518911D8A460EF07F062EF07F0B4
:100EC00064EF07F09DEF07F04FC08BF088C0D9FFAB
:100ED00089C0DAFFDF500F0B8A6F8B518A19F80B2C
:100EE0008A198B6F88C0D9FF89C0DAFFDF38070BFA
:100EF0008A6F8A478A478A478B518A19C70B8A1992
:100F00008B6F88C0D9FF89C0DAFFDFAE02D08B8D2E
:100F100002D000018B9D20EE01F08851D926895125
:100F2000DA22DFA002D08B8F02D000018B9F8B0EC4
:100F3000816F000E826F2CEC09F012005C505D1086
:100F4000D8A4A5EF07F0A7EF07F0A9EF07F0E2EFAD
:100F500007F050C05FF05CC0D9FF5DC0DAFFDF5022
:100F60000F0B5E6E5F505E18F80B5E185F6E5CC014
:100F7000D9FF5DC0DAFFDF38070B5E6E5E465E4666
:100F80005E465F505E18C70B5E185F6E5CC0D9FF8F
:100F90005DC0DAFFDFAE02D05F8C01D05F9C20EE37
:100FA00001F05C50D9265D50DA22DFA002D05F8EBE
:100FB00001D05F9E5F0E536E000E546E000E556E94
:100FC0003CEC06F012005C505D10D8A4EAEF07F08C
:100FD000ECEF07F0EEEF07F027EF08F051C05FF0FD
:100FE0005CC0D9FF5DC0DAFFDF500F0B5E6E5F5053
:100FF0005E18F80B5E185F6E5CC0D9FF5DC0DAFF4B
:10100000DF38070B5E6E5E465E465E465F505E18DA
:10101000C70B5E185F6E5CC0D9FF5DC0DAFFDFAE44
:1010200002D05F8C01D05F9C20EE01F05C50D9268D
:101030005D50DA22DFA002D05F8E01D05F9E5F0E8E
:10104000536E000E546E010E556E3CEC06F012000D
:10105000626EF2906250D8A430EF08F032EF08F0E0
:101060004AEF08F03B503C10D8B439EF08F03BEFA2
:1010700008F068EF08F002D848EF08F00500FA6EB3
:101080003B50FD6E3C50FE6EF850FF6EFA50120061
:1010900068EF08F06204D8A450EF08F052EF08F0AF
:1010A00068EF08F039503A10D8B459EF08F05BEF08
:1010B00008F068EF08F002D868EF08F00500FA6E53
:1010C0003950FD6E3A50FE6EF850FF6EFA50120025
:1010D0001200626EF2906250D8A471EF08F073EFC4
:1010E00008F08BEF08F03F504010D8B47AEF08F0CA
:1010F0007CEF08F0A9EF08F002D889EF08F00500AE
:10110000FA6E3F50FD6E4050FE6EF850FF6EFA5082
:101110001200A9EF08F06204D8A491EF08F093EF51
:1011200008F0A9EF08F03D503E10D8B49AEF08F04F
:101130009CEF08F0A9EF08F002D8A9EF08F005002D
:10114000FA6E3D50FD6E3E50FE6EF850FF6EFA5046
:1011500012001200626EF2906250D8A4B2EF08F052
:10116000B4EF08F0CCEF08F043504410D8B4BBEF14
:1011700008F0BDEF08F0EAEF08F002D8CAEF08F077
:101180000500FA6E4350FD6E4450FE6EF850FF6E3F
:10119000FA501200EAEF08F06204D8A4D2EF08F087
:1011A000D4EF08F0EAEF08F041504210D8B4DBEF7A
:1011B00008F0DDEF08F0EAEF08F002D8EAEF08F0F7
:1011C0000500FA6E4150FD6E4250FE6EF850FF6E03
:1011D000FA5012001200626EF2906250D8A4F3EF3F
:1011E00008F0F5EF08F00DEF09F047504810D8B4BB
:1011F000FCEF08F0FEEF08F02BEF09F002D80BEF40
:1012000009F00500FA6E4750FD6E4850FE6EF8502A
:10121000FF6EFA5012002BEF09F06204D8A413EF0E
:1012200009F015EF09F02BEF09F045504610D8B43E
:101230001CEF09F01EEF09F02BEF09F002D82BEF9D
:1012400009F00500FA6E4550FD6E4650FE6EF850EE
:10125000FF6EFA5012001200000181518211D8A4D1
:1012600034EF09F036EF09F038EF09F065EF09F0D7
:1012700081C0D9FF82C0DAFFDF30E832E832070BE5
:10128000836F010E846F832B48EF09F0D890843769
:10129000832F46EF09F081C0D9FF82C0DAFFDF500B
:1012A000070B0001856F8551020D010EF324D96EE5
:1012B000000EF420DA6EDECF86F0DDCF87F086C038
:1012C000D9FF87C0DAFF8451DF1A120000018B5169
:1012D0008C11D8B46EEF09F070EF09F081EF09F0CE
:1012E0008BC0D9FF8CC0DAFFDF30E832E832070B61
:1012F0008D6F070E8D657FEF09F081EF09F085EFA7
:1013000009F0000E8E6F9DEF09F08BC081F08CC04C
:1013100082F020EC05F000018E6F8BC081F08CC054
:1013200082F08BC0D9FF8CC0DAFF000EDFBE010E49
:10133000836FB4EC05F000018E6F8E511200180E11
:10134000F66E140EF76E000EF86E00EE96F010EECC
:1013500010F00900F5CFEEFFE550E150FAE1980EEC
:10136000F66E130EF76E000EF86E00EE01F010EE42
:1013700038F00900F5CFEEFFE550E150FAE100EE5C
:1013800039F01A0EEE6AE806FDE169906992000EE6
:10139000F86E0001BCEF06F0890F8A0F8B0F8C0FDF
:1013A0008D0F920F930F940F950F960F010101016E
:1013B0006E14441479015214281471016014361407
:1013C0006901F413D01361013200220012000200FF
:1013D000350E5C6E000E5D6EE3EC07F0060E616E7E
:1013E000130E606EAE0EE82EFED7602EFCD7612E77
:1013F000FAD71200370E5C6E000E5D6EE3EC07F05C
:10140000060E616E130E606EAE0EE82EFED7602ED5
:10141000FCD7612EFAD71200800F810F820F830F45
:10142000840F020A121A222A310E5C6E000E5D6EC3
:10143000E3EC07F01200350E5C6E000E5D6E9EEC64
:1014400007F01200310E5C6E000E5D6E9EEC07F030
:101450001200330E5C6E000E5D6EE3EC07F01200BE
:10146000370E5C6E000E5D6E9EEC07F01200330EC0
:101470005C6E000E5D6E9EEC07F01200F2921200A0
:0C148000F2921200F0921200F2921200A0
:020000040020DA
:08000000FFFFFFFFFFFFFFFF00
:020000040030CA
:0E000000FF071F1FFF8185FF0FC00FE00F409D
:00000001FF
